{
    "_format": "hh-sol-artifact-1",
    "contractName": "CryptoDevs",
    "sourceName": "contracts/CryptoDevs.sol",
    "abi": [
        {
            "inputs": [
                {
                    "internalType": "string",
                    "name": "_baseTokenURI",
                    "type": "string"
                },
                {
                    "internalType": "address",
                    "name": "_whitelistContract",
                    "type": "address"
                }
            ],
            "stateMutability": "nonpayable",
            "type": "constructor"
        },
        {
            "anonymous": false,
            "inputs": [
                {
                    "indexed": true,
                    "internalType": "address",
                    "name": "owner",
                    "type": "address"
                },
                {
                    "indexed": true,
                    "internalType": "address",
                    "name": "approved",
                    "type": "address"
                },
                {
                    "indexed": true,
                    "internalType": "uint256",
                    "name": "tokenId",
                    "type": "uint256"
                }
            ],
            "name": "Approval",
            "type": "event"
        },
        {
            "anonymous": false,
            "inputs": [
                {
                    "indexed": true,
                    "internalType": "address",
                    "name": "owner",
                    "type": "address"
                },
                {
                    "indexed": true,
                    "internalType": "address",
                    "name": "operator",
                    "type": "address"
                },
                {
                    "indexed": false,
                    "internalType": "bool",
                    "name": "approved",
                    "type": "bool"
                }
            ],
            "name": "ApprovalForAll",
            "type": "event"
        },
        {
            "anonymous": false,
            "inputs": [
                {
                    "indexed": true,
                    "internalType": "address",
                    "name": "previousOwner",
                    "type": "address"
                },
                {
                    "indexed": true,
                    "internalType": "address",
                    "name": "newOwner",
                    "type": "address"
                }
            ],
            "name": "OwnershipTransferred",
            "type": "event"
        },
        {
            "anonymous": false,
            "inputs": [
                {
                    "indexed": true,
                    "internalType": "address",
                    "name": "from",
                    "type": "address"
                },
                {
                    "indexed": true,
                    "internalType": "address",
                    "name": "to",
                    "type": "address"
                },
                {
                    "indexed": true,
                    "internalType": "uint256",
                    "name": "tokenId",
                    "type": "uint256"
                }
            ],
            "name": "Transfer",
            "type": "event"
        },
        {
            "stateMutability": "payable",
            "type": "fallback"
        },
        {
            "inputs": [
                {
                    "internalType": "address",
                    "name": "to",
                    "type": "address"
                },
                {
                    "internalType": "uint256",
                    "name": "tokenId",
                    "type": "uint256"
                }
            ],
            "name": "approve",
            "outputs": [],
            "stateMutability": "nonpayable",
            "type": "function"
        },
        {
            "inputs": [
                {
                    "internalType": "address",
                    "name": "owner",
                    "type": "address"
                }
            ],
            "name": "balanceOf",
            "outputs": [
                {
                    "internalType": "uint256",
                    "name": "",
                    "type": "uint256"
                }
            ],
            "stateMutability": "view",
            "type": "function"
        },
        {
            "inputs": [
                {
                    "internalType": "uint256",
                    "name": "tokenId",
                    "type": "uint256"
                }
            ],
            "name": "getApproved",
            "outputs": [
                {
                    "internalType": "address",
                    "name": "",
                    "type": "address"
                }
            ],
            "stateMutability": "view",
            "type": "function"
        },
        {
            "inputs": [
                {
                    "internalType": "address",
                    "name": "owner",
                    "type": "address"
                },
                {
                    "internalType": "address",
                    "name": "operator",
                    "type": "address"
                }
            ],
            "name": "isApprovedForAll",
            "outputs": [
                {
                    "internalType": "bool",
                    "name": "",
                    "type": "bool"
                }
            ],
            "stateMutability": "view",
            "type": "function"
        },
        {
            "inputs": [],
            "name": "name",
            "outputs": [
                {
                    "internalType": "string",
                    "name": "",
                    "type": "string"
                }
            ],
            "stateMutability": "view",
            "type": "function"
        },
        {
            "inputs": [],
            "name": "owner",
            "outputs": [
                {
                    "internalType": "address",
                    "name": "",
                    "type": "address"
                }
            ],
            "stateMutability": "view",
            "type": "function"
        },
        {
            "inputs": [
                {
                    "internalType": "uint256",
                    "name": "tokenId",
                    "type": "uint256"
                }
            ],
            "name": "ownerOf",
            "outputs": [
                {
                    "internalType": "address",
                    "name": "",
                    "type": "address"
                }
            ],
            "stateMutability": "view",
            "type": "function"
        },
        {
            "inputs": [],
            "name": "postsaleMint",
            "outputs": [],
            "stateMutability": "payable",
            "type": "function"
        },
        {
            "inputs": [],
            "name": "presaleMint",
            "outputs": [],
            "stateMutability": "payable",
            "type": "function"
        },
        {
            "inputs": [],
            "name": "renounceOwnership",
            "outputs": [],
            "stateMutability": "nonpayable",
            "type": "function"
        },
        {
            "inputs": [
                {
                    "internalType": "address",
                    "name": "from",
                    "type": "address"
                },
                {
                    "internalType": "address",
                    "name": "to",
                    "type": "address"
                },
                {
                    "internalType": "uint256",
                    "name": "tokenId",
                    "type": "uint256"
                }
            ],
            "name": "safeTransferFrom",
            "outputs": [],
            "stateMutability": "nonpayable",
            "type": "function"
        },
        {
            "inputs": [
                {
                    "internalType": "address",
                    "name": "from",
                    "type": "address"
                },
                {
                    "internalType": "address",
                    "name": "to",
                    "type": "address"
                },
                {
                    "internalType": "uint256",
                    "name": "tokenId",
                    "type": "uint256"
                },
                {
                    "internalType": "bytes",
                    "name": "_data",
                    "type": "bytes"
                }
            ],
            "name": "safeTransferFrom",
            "outputs": [],
            "stateMutability": "nonpayable",
            "type": "function"
        },
        {
            "inputs": [
                {
                    "internalType": "address",
                    "name": "operator",
                    "type": "address"
                },
                {
                    "internalType": "bool",
                    "name": "approved",
                    "type": "bool"
                }
            ],
            "name": "setApprovalForAll",
            "outputs": [],
            "stateMutability": "nonpayable",
            "type": "function"
        },
        {
            "inputs": [
                {
                    "internalType": "bool",
                    "name": "isPaused",
                    "type": "bool"
                }
            ],
            "name": "setPaused",
            "outputs": [],
            "stateMutability": "nonpayable",
            "type": "function"
        },
        {
            "inputs": [],
            "name": "startPresale",
            "outputs": [],
            "stateMutability": "nonpayable",
            "type": "function"
        },
        {
            "inputs": [
                {
                    "internalType": "bytes4",
                    "name": "interfaceId",
                    "type": "bytes4"
                }
            ],
            "name": "supportsInterface",
            "outputs": [
                {
                    "internalType": "bool",
                    "name": "",
                    "type": "bool"
                }
            ],
            "stateMutability": "view",
            "type": "function"
        },
        {
            "inputs": [],
            "name": "symbol",
            "outputs": [
                {
                    "internalType": "string",
                    "name": "",
                    "type": "string"
                }
            ],
            "stateMutability": "view",
            "type": "function"
        },
        {
            "inputs": [
                {
                    "internalType": "uint256",
                    "name": "index",
                    "type": "uint256"
                }
            ],
            "name": "tokenByIndex",
            "outputs": [
                {
                    "internalType": "uint256",
                    "name": "",
                    "type": "uint256"
                }
            ],
            "stateMutability": "view",
            "type": "function"
        },
        {
            "inputs": [
                {
                    "internalType": "address",
                    "name": "owner",
                    "type": "address"
                },
                {
                    "internalType": "uint256",
                    "name": "index",
                    "type": "uint256"
                }
            ],
            "name": "tokenOfOwnerByIndex",
            "outputs": [
                {
                    "internalType": "uint256",
                    "name": "",
                    "type": "uint256"
                }
            ],
            "stateMutability": "view",
            "type": "function"
        },
        {
            "inputs": [
                {
                    "internalType": "uint256",
                    "name": "tokenId",
                    "type": "uint256"
                }
            ],
            "name": "tokenURI",
            "outputs": [
                {
                    "internalType": "string",
                    "name": "",
                    "type": "string"
                }
            ],
            "stateMutability": "view",
            "type": "function"
        },
        {
            "inputs": [],
            "name": "totalSupply",
            "outputs": [
                {
                    "internalType": "uint256",
                    "name": "",
                    "type": "uint256"
                }
            ],
            "stateMutability": "view",
            "type": "function"
        },
        {
            "inputs": [
                {
                    "internalType": "address",
                    "name": "from",
                    "type": "address"
                },
                {
                    "internalType": "address",
                    "name": "to",
                    "type": "address"
                },
                {
                    "internalType": "uint256",
                    "name": "tokenId",
                    "type": "uint256"
                }
            ],
            "name": "transferFrom",
            "outputs": [],
            "stateMutability": "nonpayable",
            "type": "function"
        },
        {
            "inputs": [
                {
                    "internalType": "address",
                    "name": "newOwner",
                    "type": "address"
                }
            ],
            "name": "transferOwnership",
            "outputs": [],
            "stateMutability": "nonpayable",
            "type": "function"
        },
        {
            "inputs": [],
            "name": "whitelistContract",
            "outputs": [
                {
                    "internalType": "contract IWhitelist",
                    "name": "",
                    "type": "address"
                }
            ],
            "stateMutability": "view",
            "type": "function"
        },
        {
            "inputs": [],
            "name": "withdraw",
            "outputs": [],
            "stateMutability": "nonpayable",
            "type": "function"
        },
        {
            "stateMutability": "payable",
            "type": "receive"
        }
    ],
    "bytecode": "0x608060405260405180602001604052806000815250600c90805190602001906200002b9291906200029a565b50662386f26fc10000600d556000600e60006101000a81548160ff0219169083151502179055506014600f5560006010556000601160006101000a81548160ff0219169083151502179055503480156200008457600080fd5b5060405162004591380380620045918339818101604052810190620000aa91906200054c565b6040518060400160405280600b81526020017f43727970746f20446576730000000000000000000000000000000000000000008152506040518060400160405280600281526020017f434400000000000000000000000000000000000000000000000000000000000081525081600090805190602001906200012e9291906200029a565b508060019080519060200190620001479291906200029a565b5050506200016a6200015e620001cc60201b60201c565b620001d460201b60201c565b81600c9080519060200190620001829291906200029a565b5080600b60006101000a81548173ffffffffffffffffffffffffffffffffffffffff021916908373ffffffffffffffffffffffffffffffffffffffff160217905550505062000616565b600033905090565b6000600a60009054906101000a900473ffffffffffffffffffffffffffffffffffffffff16905081600a60006101000a81548173ffffffffffffffffffffffffffffffffffffffff021916908373ffffffffffffffffffffffffffffffffffffffff1602179055508173ffffffffffffffffffffffffffffffffffffffff168173ffffffffffffffffffffffffffffffffffffffff167f8be0079c531659141344cd1fd0a4f28419497f9722a3daafe3b4186f6b6457e060405160405180910390a35050565b828054620002a890620005e1565b90600052602060002090601f016020900481019282620002cc576000855562000318565b82601f10620002e757805160ff191683800117855562000318565b8280016001018555821562000318579182015b8281111562000317578251825591602001919060010190620002fa565b5b5090506200032791906200032b565b5090565b5b80821115620003465760008160009055506001016200032c565b5090565b6000604051905090565b600080fd5b600080fd5b600080fd5b600080fd5b6000601f19601f8301169050919050565b7f4e487b7100000000000000000000000000000000000000000000000000000000600052604160045260246000fd5b620003b38262000368565b810181811067ffffffffffffffff82111715620003d557620003d462000379565b5b80604052505050565b6000620003ea6200034a565b9050620003f88282620003a8565b919050565b600067ffffffffffffffff8211156200041b576200041a62000379565b5b620004268262000368565b9050602081019050919050565b60005b838110156200045357808201518184015260208101905062000436565b8381111562000463576000848401525b50505050565b6000620004806200047a84620003fd565b620003de565b9050828152602081018484840111156200049f576200049e62000363565b5b620004ac84828562000433565b509392505050565b600082601f830112620004cc57620004cb6200035e565b5b8151620004de84826020860162000469565b91505092915050565b600073ffffffffffffffffffffffffffffffffffffffff82169050919050565b60006200051482620004e7565b9050919050565b620005268162000507565b81146200053257600080fd5b50565b60008151905062000546816200051b565b92915050565b6000806040838503121562000566576200056562000354565b5b600083015167ffffffffffffffff81111562000587576200058662000359565b5b6200059585828601620004b4565b9250506020620005a88582860162000535565b9150509250929050565b7f4e487b7100000000000000000000000000000000000000000000000000000000600052602260045260246000fd5b60006002820490506001821680620005fa57607f821691505b60208210810362000610576200060f620005b2565b5b50919050565b613f6b80620006266000396000f3fe60806040526004361061016a5760003560e01c80634f6ccce7116100d15780638da5cb5b1161008a578063b88d4fde11610064578063b88d4fde146104de578063c87b56dd14610507578063e985e9c514610544578063f2fde38b1461058157610171565b80638da5cb5b1461045f57806395d89b411461048a578063a22cb465146104b557610171565b80634f6ccce71461035c57806359533d6c146103995780636352211e146103a357806370a08231146103e0578063715018a61461041d57806384900b041461043457610171565b806318160ddd1161012357806318160ddd1461028157806323b872dd146102ac5780632bc4927b146102d55780632f745c59146102df5780633ccfd60b1461031c57806342842e0e1461033357610171565b806301ffc9a71461017357806304c98b2b146101b057806306fdde03146101c7578063081812fc146101f2578063095ea7b31461022f57806316c38b3c1461025857610171565b3661017157005b005b34801561017f57600080fd5b5061019a60048036038101906101959190612856565b6105aa565b6040516101a7919061289e565b60405180910390f35b3480156101bc57600080fd5b506101c5610624565b005b3480156101d357600080fd5b506101dc6106d1565b6040516101e99190612952565b60405180910390f35b3480156101fe57600080fd5b50610219600480360381019061021491906129aa565b610763565b6040516102269190612a18565b60405180910390f35b34801561023b57600080fd5b5061025660048036038101906102519190612a5f565b6107e8565b005b34801561026457600080fd5b5061027f600480360381019061027a9190612acb565b6108ff565b005b34801561028d57600080fd5b50610296610998565b6040516102a39190612b07565b60405180910390f35b3480156102b857600080fd5b506102d360048036038101906102ce9190612b22565b6109a5565b005b6102dd610a05565b005b3480156102eb57600080fd5b5061030660048036038101906103019190612a5f565b610b65565b6040516103139190612b07565b60405180910390f35b34801561032857600080fd5b50610331610c0a565b005b34801561033f57600080fd5b5061035a60048036038101906103559190612b22565b610d48565b005b34801561036857600080fd5b50610383600480360381019061037e91906129aa565b610d68565b6040516103909190612b07565b60405180910390f35b6103a1610dd9565b005b3480156103af57600080fd5b506103ca60048036038101906103c591906129aa565b611013565b6040516103d79190612a18565b60405180910390f35b3480156103ec57600080fd5b5061040760048036038101906104029190612b75565b6110c4565b6040516104149190612b07565b60405180910390f35b34801561042957600080fd5b5061043261117b565b005b34801561044057600080fd5b50610449611203565b6040516104569190612c01565b60405180910390f35b34801561046b57600080fd5b50610474611229565b6040516104819190612a18565b60405180910390f35b34801561049657600080fd5b5061049f611253565b6040516104ac9190612952565b60405180910390f35b3480156104c157600080fd5b506104dc60048036038101906104d79190612c1c565b6112e5565b005b3480156104ea57600080fd5b5061050560048036038101906105009190612d91565b6112fb565b005b34801561051357600080fd5b5061052e600480360381019061052991906129aa565b61135d565b60405161053b9190612952565b60405180910390f35b34801561055057600080fd5b5061056b60048036038101906105669190612e14565b611404565b604051610578919061289e565b60405180910390f35b34801561058d57600080fd5b506105a860048036038101906105a39190612b75565b611498565b005b60007f780e9d63000000000000000000000000000000000000000000000000000000007bffffffffffffffffffffffffffffffffffffffffffffffffffffffff1916827bffffffffffffffffffffffffffffffffffffffffffffffffffffffff1916148061061d575061061c8261158f565b5b9050919050565b61062c611671565b73ffffffffffffffffffffffffffffffffffffffff1661064a611229565b73ffffffffffffffffffffffffffffffffffffffff16146106a0576040517f08c379a000000000000000000000000000000000000000000000000000000000815260040161069790612ea0565b60405180910390fd5b6001601160006101000a81548160ff02191690831515021790555061012c426106c99190612eef565b601281905550565b6060600080546106e090612f74565b80601f016020809104026020016040519081016040528092919081815260200182805461070c90612f74565b80156107595780601f1061072e57610100808354040283529160200191610759565b820191906000526020600020905b81548152906001019060200180831161073c57829003601f168201915b5050505050905090565b600061076e82611679565b6107ad576040517f08c379a00000000000000000000000000000000000000000000000000000000081526004016107a490613017565b60405180910390fd5b6004600083815260200190815260200160002060009054906101000a900473ffffffffffffffffffffffffffffffffffffffff169050919050565b60006107f382611013565b90508073ffffffffffffffffffffffffffffffffffffffff168373ffffffffffffffffffffffffffffffffffffffff1603610863576040517f08c379a000000000000000000000000000000000000000000000000000000000815260040161085a906130a9565b60405180910390fd5b8073ffffffffffffffffffffffffffffffffffffffff16610882611671565b73ffffffffffffffffffffffffffffffffffffffff1614806108b157506108b0816108ab611671565b611404565b5b6108f0576040517f08c379a00000000000000000000000000000000000000000000000000000000081526004016108e79061313b565b60405180910390fd5b6108fa83836116e5565b505050565b610907611671565b73ffffffffffffffffffffffffffffffffffffffff16610925611229565b73ffffffffffffffffffffffffffffffffffffffff161461097b576040517f08c379a000000000000000000000000000000000000000000000000000000000815260040161097290612ea0565b60405180910390fd5b80600e60006101000a81548160ff02191690831515021790555050565b6000600880549050905090565b6109b66109b0611671565b8261179e565b6109f5576040517f08c379a00000000000000000000000000000000000000000000000000000000081526004016109ec906131cd565b60405180910390fd5b610a0083838361187c565b505050565b600e60009054906101000a900460ff1615610a55576040517f08c379a0000000000000000000000000000000000000000000000000000000008152600401610a4c90613239565b60405180910390fd5b601160009054906101000a900460ff168015610a7357506012544210155b610ab2576040517f08c379a0000000000000000000000000000000000000000000000000000000008152600401610aa9906132a5565b60405180910390fd5b600f5460105410610af8576040517f08c379a0000000000000000000000000000000000000000000000000000000008152600401610aef90613337565b60405180910390fd5b600d54341015610b3d576040517f08c379a0000000000000000000000000000000000000000000000000000000008152600401610b34906133a3565b60405180910390fd5b600160106000828254610b509190612eef565b92505081905550610b6333601054611ae2565b565b6000610b70836110c4565b8210610bb1576040517f08c379a0000000000000000000000000000000000000000000000000000000008152600401610ba890613435565b60405180910390fd5b600660008473ffffffffffffffffffffffffffffffffffffffff1673ffffffffffffffffffffffffffffffffffffffff168152602001908152602001600020600083815260200190815260200160002054905092915050565b610c12611671565b73ffffffffffffffffffffffffffffffffffffffff16610c30611229565b73ffffffffffffffffffffffffffffffffffffffff1614610c86576040517f08c379a0000000000000000000000000000000000000000000000000000000008152600401610c7d90612ea0565b60405180910390fd5b6000610c90611229565b9050600047905060008273ffffffffffffffffffffffffffffffffffffffff1682604051610cbd90613486565b60006040518083038185875af1925050503d8060008114610cfa576040519150601f19603f3d011682016040523d82523d6000602084013e610cff565b606091505b5050905080610d43576040517f08c379a0000000000000000000000000000000000000000000000000000000008152600401610d3a906134e7565b60405180910390fd5b505050565b610d63838383604051806020016040528060008152506112fb565b505050565b6000610d72610998565b8210610db3576040517f08c379a0000000000000000000000000000000000000000000000000000000008152600401610daa90613579565b60405180910390fd5b60088281548110610dc757610dc6613599565b5b90600052602060002001549050919050565b600e60009054906101000a900460ff1615610e29576040517f08c379a0000000000000000000000000000000000000000000000000000000008152600401610e2090613239565b60405180910390fd5b601160009054906101000a900460ff168015610e46575060125442105b610e85576040517f08c379a0000000000000000000000000000000000000000000000000000000008152600401610e7c90613614565b60405180910390fd5b600b60009054906101000a900473ffffffffffffffffffffffffffffffffffffffff1673ffffffffffffffffffffffffffffffffffffffff166306c933d8336040518263ffffffff1660e01b8152600401610ee09190612a18565b602060405180830381865afa158015610efd573d6000803e3d6000fd5b505050506040513d601f19601f82011682018060405250810190610f219190613649565b610f60576040517f08c379a0000000000000000000000000000000000000000000000000000000008152600401610f57906136c2565b60405180910390fd5b600f5460105410610fa6576040517f08c379a0000000000000000000000000000000000000000000000000000000008152600401610f9d90613337565b60405180910390fd5b600d54341015610feb576040517f08c379a0000000000000000000000000000000000000000000000000000000008152600401610fe2906133a3565b60405180910390fd5b600160106000828254610ffe9190612eef565b9250508190555061101133601054611ae2565b565b6000806002600084815260200190815260200160002060009054906101000a900473ffffffffffffffffffffffffffffffffffffffff169050600073ffffffffffffffffffffffffffffffffffffffff168173ffffffffffffffffffffffffffffffffffffffff16036110bb576040517f08c379a00000000000000000000000000000000000000000000000000000000081526004016110b290613754565b60405180910390fd5b80915050919050565b60008073ffffffffffffffffffffffffffffffffffffffff168273ffffffffffffffffffffffffffffffffffffffff1603611134576040517f08c379a000000000000000000000000000000000000000000000000000000000815260040161112b906137e6565b60405180910390fd5b600360008373ffffffffffffffffffffffffffffffffffffffff1673ffffffffffffffffffffffffffffffffffffffff168152602001908152602001600020549050919050565b611183611671565b73ffffffffffffffffffffffffffffffffffffffff166111a1611229565b73ffffffffffffffffffffffffffffffffffffffff16146111f7576040517f08c379a00000000000000000000000000000000000000000000000000000000081526004016111ee90612ea0565b60405180910390fd5b6112016000611b00565b565b600b60009054906101000a900473ffffffffffffffffffffffffffffffffffffffff1681565b6000600a60009054906101000a900473ffffffffffffffffffffffffffffffffffffffff16905090565b60606001805461126290612f74565b80601f016020809104026020016040519081016040528092919081815260200182805461128e90612f74565b80156112db5780601f106112b0576101008083540402835291602001916112db565b820191906000526020600020905b8154815290600101906020018083116112be57829003601f168201915b5050505050905090565b6112f76112f0611671565b8383611bc6565b5050565b61130c611306611671565b8361179e565b61134b576040517f08c379a0000000000000000000000000000000000000000000000000000000008152600401611342906131cd565b60405180910390fd5b61135784848484611d32565b50505050565b606061136882611679565b6113a7576040517f08c379a000000000000000000000000000000000000000000000000000000000815260040161139e90613878565b60405180910390fd5b60006113b1611d8e565b905060008151116113d157604051806020016040528060008152506113fc565b806113db84611e20565b6040516020016113ec9291906138d4565b6040516020818303038152906040525b915050919050565b6000600560008473ffffffffffffffffffffffffffffffffffffffff1673ffffffffffffffffffffffffffffffffffffffff16815260200190815260200160002060008373ffffffffffffffffffffffffffffffffffffffff1673ffffffffffffffffffffffffffffffffffffffff16815260200190815260200160002060009054906101000a900460ff16905092915050565b6114a0611671565b73ffffffffffffffffffffffffffffffffffffffff166114be611229565b73ffffffffffffffffffffffffffffffffffffffff1614611514576040517f08c379a000000000000000000000000000000000000000000000000000000000815260040161150b90612ea0565b60405180910390fd5b600073ffffffffffffffffffffffffffffffffffffffff168173ffffffffffffffffffffffffffffffffffffffff1603611583576040517f08c379a000000000000000000000000000000000000000000000000000000000815260040161157a9061396a565b60405180910390fd5b61158c81611b00565b50565b60007f80ac58cd000000000000000000000000000000000000000000000000000000007bffffffffffffffffffffffffffffffffffffffffffffffffffffffff1916827bffffffffffffffffffffffffffffffffffffffffffffffffffffffff1916148061165a57507f5b5e139f000000000000000000000000000000000000000000000000000000007bffffffffffffffffffffffffffffffffffffffffffffffffffffffff1916827bffffffffffffffffffffffffffffffffffffffffffffffffffffffff1916145b8061166a575061166982611f80565b5b9050919050565b600033905090565b60008073ffffffffffffffffffffffffffffffffffffffff166002600084815260200190815260200160002060009054906101000a900473ffffffffffffffffffffffffffffffffffffffff1673ffffffffffffffffffffffffffffffffffffffff1614159050919050565b816004600083815260200190815260200160002060006101000a81548173ffffffffffffffffffffffffffffffffffffffff021916908373ffffffffffffffffffffffffffffffffffffffff160217905550808273ffffffffffffffffffffffffffffffffffffffff1661175883611013565b73ffffffffffffffffffffffffffffffffffffffff167f8c5be1e5ebec7d5bd14f71427d1e84f3dd0314c0f7b2291e5b200ac8c7c3b92560405160405180910390a45050565b60006117a982611679565b6117e8576040517f08c379a00000000000000000000000000000000000000000000000000000000081526004016117df906139fc565b60405180910390fd5b60006117f383611013565b90508073ffffffffffffffffffffffffffffffffffffffff168473ffffffffffffffffffffffffffffffffffffffff16148061186257508373ffffffffffffffffffffffffffffffffffffffff1661184a84610763565b73ffffffffffffffffffffffffffffffffffffffff16145b8061187357506118728185611404565b5b91505092915050565b8273ffffffffffffffffffffffffffffffffffffffff1661189c82611013565b73ffffffffffffffffffffffffffffffffffffffff16146118f2576040517f08c379a00000000000000000000000000000000000000000000000000000000081526004016118e990613a8e565b60405180910390fd5b600073ffffffffffffffffffffffffffffffffffffffff168273ffffffffffffffffffffffffffffffffffffffff1603611961576040517f08c379a000000000000000000000000000000000000000000000000000000000815260040161195890613b20565b60405180910390fd5b61196c838383611fea565b6119776000826116e5565b6001600360008573ffffffffffffffffffffffffffffffffffffffff1673ffffffffffffffffffffffffffffffffffffffff16815260200190815260200160002060008282546119c79190613b40565b925050819055506001600360008473ffffffffffffffffffffffffffffffffffffffff1673ffffffffffffffffffffffffffffffffffffffff1681526020019081526020016000206000828254611a1e9190612eef565b92505081905550816002600083815260200190815260200160002060006101000a81548173ffffffffffffffffffffffffffffffffffffffff021916908373ffffffffffffffffffffffffffffffffffffffff160217905550808273ffffffffffffffffffffffffffffffffffffffff168473ffffffffffffffffffffffffffffffffffffffff167fddf252ad1be2c89b69c2b068fc378daa952ba7f163c4a11628f55a4df523b3ef60405160405180910390a4611add8383836120fc565b505050565b611afc828260405180602001604052806000815250612101565b5050565b6000600a60009054906101000a900473ffffffffffffffffffffffffffffffffffffffff16905081600a60006101000a81548173ffffffffffffffffffffffffffffffffffffffff021916908373ffffffffffffffffffffffffffffffffffffffff1602179055508173ffffffffffffffffffffffffffffffffffffffff168173ffffffffffffffffffffffffffffffffffffffff167f8be0079c531659141344cd1fd0a4f28419497f9722a3daafe3b4186f6b6457e060405160405180910390a35050565b8173ffffffffffffffffffffffffffffffffffffffff168373ffffffffffffffffffffffffffffffffffffffff1603611c34576040517f08c379a0000000000000000000000000000000000000000000000000000000008152600401611c2b90613bc0565b60405180910390fd5b80600560008573ffffffffffffffffffffffffffffffffffffffff1673ffffffffffffffffffffffffffffffffffffffff16815260200190815260200160002060008473ffffffffffffffffffffffffffffffffffffffff1673ffffffffffffffffffffffffffffffffffffffff16815260200190815260200160002060006101000a81548160ff0219169083151502179055508173ffffffffffffffffffffffffffffffffffffffff168373ffffffffffffffffffffffffffffffffffffffff167f17307eab39ab6107e8899845ad3d59bd9653f200f220920489ca2b5937696c3183604051611d25919061289e565b60405180910390a3505050565b611d3d84848461187c565b611d498484848461215c565b611d88576040517f08c379a0000000000000000000000000000000000000000000000000000000008152600401611d7f90613c52565b60405180910390fd5b50505050565b6060600c8054611d9d90612f74565b80601f0160208091040260200160405190810160405280929190818152602001828054611dc990612f74565b8015611e165780601f10611deb57610100808354040283529160200191611e16565b820191906000526020600020905b815481529060010190602001808311611df957829003601f168201915b5050505050905090565b606060008203611e67576040518060400160405280600181526020017f30000000000000000000000000000000000000000000000000000000000000008152509050611f7b565b600082905060005b60008214611e99578080611e8290613c72565b915050600a82611e929190613ce9565b9150611e6f565b60008167ffffffffffffffff811115611eb557611eb4612c66565b5b6040519080825280601f01601f191660200182016040528015611ee75781602001600182028036833780820191505090505b5090505b60008514611f7457600182611f009190613b40565b9150600a85611f0f9190613d1a565b6030611f1b9190612eef565b60f81b818381518110611f3157611f30613599565b5b60200101907effffffffffffffffffffffffffffffffffffffffffffffffffffffffffffff1916908160001a905350600a85611f6d9190613ce9565b9450611eeb565b8093505050505b919050565b60007f01ffc9a7000000000000000000000000000000000000000000000000000000007bffffffffffffffffffffffffffffffffffffffffffffffffffffffff1916827bffffffffffffffffffffffffffffffffffffffffffffffffffffffff1916149050919050565b611ff58383836122e3565b600073ffffffffffffffffffffffffffffffffffffffff168373ffffffffffffffffffffffffffffffffffffffff160361203757612032816122e8565b612076565b8173ffffffffffffffffffffffffffffffffffffffff168373ffffffffffffffffffffffffffffffffffffffff1614612075576120748382612331565b5b5b600073ffffffffffffffffffffffffffffffffffffffff168273ffffffffffffffffffffffffffffffffffffffff16036120b8576120b38161249e565b6120f7565b8273ffffffffffffffffffffffffffffffffffffffff168273ffffffffffffffffffffffffffffffffffffffff16146120f6576120f5828261256f565b5b5b505050565b505050565b61210b83836125ee565b612118600084848461215c565b612157576040517f08c379a000000000000000000000000000000000000000000000000000000000815260040161214e90613c52565b60405180910390fd5b505050565b600061217d8473ffffffffffffffffffffffffffffffffffffffff166127c7565b156122d6578373ffffffffffffffffffffffffffffffffffffffff1663150b7a026121a6611671565b8786866040518563ffffffff1660e01b81526004016121c89493929190613da0565b6020604051808303816000875af192505050801561220457506040513d601f19601f820116820180604052508101906122019190613e01565b60015b612286573d8060008114612234576040519150601f19603f3d011682016040523d82523d6000602084013e612239565b606091505b50600081510361227e576040517f08c379a000000000000000000000000000000000000000000000000000000000815260040161227590613c52565b60405180910390fd5b805181602001fd5b63150b7a0260e01b7bffffffffffffffffffffffffffffffffffffffffffffffffffffffff1916817bffffffffffffffffffffffffffffffffffffffffffffffffffffffff1916149150506122db565b600190505b949350505050565b505050565b6008805490506009600083815260200190815260200160002081905550600881908060018154018082558091505060019003906000526020600020016000909190919091505550565b6000600161233e846110c4565b6123489190613b40565b905060006007600084815260200190815260200160002054905081811461242d576000600660008673ffffffffffffffffffffffffffffffffffffffff1673ffffffffffffffffffffffffffffffffffffffff168152602001908152602001600020600084815260200190815260200160002054905080600660008773ffffffffffffffffffffffffffffffffffffffff1673ffffffffffffffffffffffffffffffffffffffff168152602001908152602001600020600084815260200190815260200160002081905550816007600083815260200190815260200160002081905550505b6007600084815260200190815260200160002060009055600660008573ffffffffffffffffffffffffffffffffffffffff1673ffffffffffffffffffffffffffffffffffffffff16815260200190815260200160002060008381526020019081526020016000206000905550505050565b600060016008805490506124b29190613b40565b90506000600960008481526020019081526020016000205490506000600883815481106124e2576124e1613599565b5b90600052602060002001549050806008838154811061250457612503613599565b5b90600052602060002001819055508160096000838152602001908152602001600020819055506009600085815260200190815260200160002060009055600880548061255357612552613e2e565b5b6001900381819060005260206000200160009055905550505050565b600061257a836110c4565b905081600660008573ffffffffffffffffffffffffffffffffffffffff1673ffffffffffffffffffffffffffffffffffffffff168152602001908152602001600020600083815260200190815260200160002081905550806007600084815260200190815260200160002081905550505050565b600073ffffffffffffffffffffffffffffffffffffffff168273ffffffffffffffffffffffffffffffffffffffff160361265d576040517f08c379a000000000000000000000000000000000000000000000000000000000815260040161265490613ea9565b60405180910390fd5b61266681611679565b156126a6576040517f08c379a000000000000000000000000000000000000000000000000000000000815260040161269d90613f15565b60405180910390fd5b6126b260008383611fea565b6001600360008473ffffffffffffffffffffffffffffffffffffffff1673ffffffffffffffffffffffffffffffffffffffff16815260200190815260200160002060008282546127029190612eef565b92505081905550816002600083815260200190815260200160002060006101000a81548173ffffffffffffffffffffffffffffffffffffffff021916908373ffffffffffffffffffffffffffffffffffffffff160217905550808273ffffffffffffffffffffffffffffffffffffffff16600073ffffffffffffffffffffffffffffffffffffffff167fddf252ad1be2c89b69c2b068fc378daa952ba7f163c4a11628f55a4df523b3ef60405160405180910390a46127c3600083836120fc565b5050565b6000808273ffffffffffffffffffffffffffffffffffffffff163b119050919050565b6000604051905090565b600080fd5b600080fd5b60007fffffffff0000000000000000000000000000000000000000000000000000000082169050919050565b612833816127fe565b811461283e57600080fd5b50565b6000813590506128508161282a565b92915050565b60006020828403121561286c5761286b6127f4565b5b600061287a84828501612841565b91505092915050565b60008115159050919050565b61289881612883565b82525050565b60006020820190506128b3600083018461288f565b92915050565b600081519050919050565b600082825260208201905092915050565b60005b838110156128f35780820151818401526020810190506128d8565b83811115612902576000848401525b50505050565b6000601f19601f8301169050919050565b6000612924826128b9565b61292e81856128c4565b935061293e8185602086016128d5565b61294781612908565b840191505092915050565b6000602082019050818103600083015261296c8184612919565b905092915050565b6000819050919050565b61298781612974565b811461299257600080fd5b50565b6000813590506129a48161297e565b92915050565b6000602082840312156129c0576129bf6127f4565b5b60006129ce84828501612995565b91505092915050565b600073ffffffffffffffffffffffffffffffffffffffff82169050919050565b6000612a02826129d7565b9050919050565b612a12816129f7565b82525050565b6000602082019050612a2d6000830184612a09565b92915050565b612a3c816129f7565b8114612a4757600080fd5b50565b600081359050612a5981612a33565b92915050565b60008060408385031215612a7657612a756127f4565b5b6000612a8485828601612a4a565b9250506020612a9585828601612995565b9150509250929050565b612aa881612883565b8114612ab357600080fd5b50565b600081359050612ac581612a9f565b92915050565b600060208284031215612ae157612ae06127f4565b5b6000612aef84828501612ab6565b91505092915050565b612b0181612974565b82525050565b6000602082019050612b1c6000830184612af8565b92915050565b600080600060608486031215612b3b57612b3a6127f4565b5b6000612b4986828701612a4a565b9350506020612b5a86828701612a4a565b9250506040612b6b86828701612995565b9150509250925092565b600060208284031215612b8b57612b8a6127f4565b5b6000612b9984828501612a4a565b91505092915050565b6000819050919050565b6000612bc7612bc2612bbd846129d7565b612ba2565b6129d7565b9050919050565b6000612bd982612bac565b9050919050565b6000612beb82612bce565b9050919050565b612bfb81612be0565b82525050565b6000602082019050612c166000830184612bf2565b92915050565b60008060408385031215612c3357612c326127f4565b5b6000612c4185828601612a4a565b9250506020612c5285828601612ab6565b9150509250929050565b600080fd5b600080fd5b7f4e487b7100000000000000000000000000000000000000000000000000000000600052604160045260246000fd5b612c9e82612908565b810181811067ffffffffffffffff82111715612cbd57612cbc612c66565b5b80604052505050565b6000612cd06127ea565b9050612cdc8282612c95565b919050565b600067ffffffffffffffff821115612cfc57612cfb612c66565b5b612d0582612908565b9050602081019050919050565b82818337600083830152505050565b6000612d34612d2f84612ce1565b612cc6565b905082815260208101848484011115612d5057612d4f612c61565b5b612d5b848285612d12565b509392505050565b600082601f830112612d7857612d77612c5c565b5b8135612d88848260208601612d21565b91505092915050565b60008060008060808587031215612dab57612daa6127f4565b5b6000612db987828801612a4a565b9450506020612dca87828801612a4a565b9350506040612ddb87828801612995565b925050606085013567ffffffffffffffff811115612dfc57612dfb6127f9565b5b612e0887828801612d63565b91505092959194509250565b60008060408385031215612e2b57612e2a6127f4565b5b6000612e3985828601612a4a565b9250506020612e4a85828601612a4a565b9150509250929050565b7f4f776e61626c653a2063616c6c6572206973206e6f7420746865206f776e6572600082015250565b6000612e8a6020836128c4565b9150612e9582612e54565b602082019050919050565b60006020820190508181036000830152612eb981612e7d565b9050919050565b7f4e487b7100000000000000000000000000000000000000000000000000000000600052601160045260246000fd5b6000612efa82612974565b9150612f0583612974565b9250827fffffffffffffffffffffffffffffffffffffffffffffffffffffffffffffffff03821115612f3a57612f39612ec0565b5b828201905092915050565b7f4e487b7100000000000000000000000000000000000000000000000000000000600052602260045260246000fd5b60006002820490506001821680612f8c57607f821691505b602082108103612f9f57612f9e612f45565b5b50919050565b7f4552433732313a20617070726f76656420717565727920666f72206e6f6e657860008201527f697374656e7420746f6b656e0000000000000000000000000000000000000000602082015250565b6000613001602c836128c4565b915061300c82612fa5565b604082019050919050565b6000602082019050818103600083015261303081612ff4565b9050919050565b7f4552433732313a20617070726f76616c20746f2063757272656e74206f776e6560008201527f7200000000000000000000000000000000000000000000000000000000000000602082015250565b60006130936021836128c4565b915061309e82613037565b604082019050919050565b600060208201905081810360008301526130c281613086565b9050919050565b7f4552433732313a20617070726f76652063616c6c6572206973206e6f74206f7760008201527f6e6572206e6f7220617070726f76656420666f7220616c6c0000000000000000602082015250565b60006131256038836128c4565b9150613130826130c9565b604082019050919050565b6000602082019050818103600083015261315481613118565b9050919050565b7f4552433732313a207472616e736665722063616c6c6572206973206e6f74206f60008201527f776e6572206e6f7220617070726f766564000000000000000000000000000000602082015250565b60006131b76031836128c4565b91506131c28261315b565b604082019050919050565b600060208201905081810360008301526131e6816131aa565b9050919050565b7f436f6e74726163742063757272656e746c792070617573656400000000000000600082015250565b60006132236019836128c4565b915061322e826131ed565b602082019050919050565b6000602082019050818103600083015261325281613216565b9050919050565b7f50726573616c6520686173206e6f7420656e6465642079657400000000000000600082015250565b600061328f6019836128c4565b915061329a82613259565b602082019050919050565b600060208201905081810360008301526132be81613282565b9050919050565b7f4578636565646564206d6178696d756d2043727970746f20446576732073757060008201527f706c790000000000000000000000000000000000000000000000000000000000602082015250565b60006133216023836128c4565b915061332c826132c5565b604082019050919050565b6000602082019050818103600083015261335081613314565b9050919050565b7f45746865722073656e74206973206e6f7420636f727265637400000000000000600082015250565b600061338d6019836128c4565b915061339882613357565b602082019050919050565b600060208201905081810360008301526133bc81613380565b9050919050565b7f455243373231456e756d657261626c653a206f776e657220696e646578206f7560008201527f74206f6620626f756e6473000000000000000000000000000000000000000000602082015250565b600061341f602b836128c4565b915061342a826133c3565b604082019050919050565b6000602082019050818103600083015261344e81613412565b9050919050565b600081905092915050565b50565b6000613470600083613455565b915061347b82613460565b600082019050919050565b600061349182613463565b9150819050919050565b7f4661696c656420746f2073656e64204574686572000000000000000000000000600082015250565b60006134d16014836128c4565b91506134dc8261349b565b602082019050919050565b60006020820190508181036000830152613500816134c4565b9050919050565b7f455243373231456e756d657261626c653a20676c6f62616c20696e646578206f60008201527f7574206f6620626f756e64730000000000000000000000000000000000000000602082015250565b6000613563602c836128c4565b915061356e82613507565b604082019050919050565b6000602082019050818103600083015261359281613556565b9050919050565b7f4e487b7100000000000000000000000000000000000000000000000000000000600052603260045260246000fd5b7f50726573616c65206973206e6f742072756e6e696e6700000000000000000000600082015250565b60006135fe6016836128c4565b9150613609826135c8565b602082019050919050565b6000602082019050818103600083015261362d816135f1565b9050919050565b60008151905061364381612a9f565b92915050565b60006020828403121561365f5761365e6127f4565b5b600061366d84828501613634565b91505092915050565b7f596f7520617265206e6f742077686974656c6973746564000000000000000000600082015250565b60006136ac6017836128c4565b91506136b782613676565b602082019050919050565b600060208201905081810360008301526136db8161369f565b9050919050565b7f4552433732313a206f776e657220717565727920666f72206e6f6e657869737460008201527f656e7420746f6b656e0000000000000000000000000000000000000000000000602082015250565b600061373e6029836128c4565b9150613749826136e2565b604082019050919050565b6000602082019050818103600083015261376d81613731565b9050919050565b7f4552433732313a2062616c616e636520717565727920666f7220746865207a6560008201527f726f206164647265737300000000000000000000000000000000000000000000602082015250565b60006137d0602a836128c4565b91506137db82613774565b604082019050919050565b600060208201905081810360008301526137ff816137c3565b9050919050565b7f4552433732314d657461646174613a2055524920717565727920666f72206e6f60008201527f6e6578697374656e7420746f6b656e0000000000000000000000000000000000602082015250565b6000613862602f836128c4565b915061386d82613806565b604082019050919050565b6000602082019050818103600083015261389181613855565b9050919050565b600081905092915050565b60006138ae826128b9565b6138b88185613898565b93506138c88185602086016128d5565b80840191505092915050565b60006138e082856138a3565b91506138ec82846138a3565b91508190509392505050565b7f4f776e61626c653a206e6577206f776e657220697320746865207a65726f206160008201527f6464726573730000000000000000000000000000000000000000000000000000602082015250565b60006139546026836128c4565b915061395f826138f8565b604082019050919050565b6000602082019050818103600083015261398381613947565b9050919050565b7f4552433732313a206f70657261746f7220717565727920666f72206e6f6e657860008201527f697374656e7420746f6b656e0000000000000000000000000000000000000000602082015250565b60006139e6602c836128c4565b91506139f18261398a565b604082019050919050565b60006020820190508181036000830152613a15816139d9565b9050919050565b7f4552433732313a207472616e736665722066726f6d20696e636f72726563742060008201527f6f776e6572000000000000000000000000000000000000000000000000000000602082015250565b6000613a786025836128c4565b9150613a8382613a1c565b604082019050919050565b60006020820190508181036000830152613aa781613a6b565b9050919050565b7f4552433732313a207472616e7366657220746f20746865207a65726f2061646460008201527f7265737300000000000000000000000000000000000000000000000000000000602082015250565b6000613b0a6024836128c4565b9150613b1582613aae565b604082019050919050565b60006020820190508181036000830152613b3981613afd565b9050919050565b6000613b4b82612974565b9150613b5683612974565b925082821015613b6957613b68612ec0565b5b828203905092915050565b7f4552433732313a20617070726f766520746f2063616c6c657200000000000000600082015250565b6000613baa6019836128c4565b9150613bb582613b74565b602082019050919050565b60006020820190508181036000830152613bd981613b9d565b9050919050565b7f4552433732313a207472616e7366657220746f206e6f6e20455243373231526560008201527f63656976657220696d706c656d656e7465720000000000000000000000000000602082015250565b6000613c3c6032836128c4565b9150613c4782613be0565b604082019050919050565b60006020820190508181036000830152613c6b81613c2f565b9050919050565b6000613c7d82612974565b91507fffffffffffffffffffffffffffffffffffffffffffffffffffffffffffffffff8203613caf57613cae612ec0565b5b600182019050919050565b7f4e487b7100000000000000000000000000000000000000000000000000000000600052601260045260246000fd5b6000613cf482612974565b9150613cff83612974565b925082613d0f57613d0e613cba565b5b828204905092915050565b6000613d2582612974565b9150613d3083612974565b925082613d4057613d3f613cba565b5b828206905092915050565b600081519050919050565b600082825260208201905092915050565b6000613d7282613d4b565b613d7c8185613d56565b9350613d8c8185602086016128d5565b613d9581612908565b840191505092915050565b6000608082019050613db56000830187612a09565b613dc26020830186612a09565b613dcf6040830185612af8565b8181036060830152613de18184613d67565b905095945050505050565b600081519050613dfb8161282a565b92915050565b600060208284031215613e1757613e166127f4565b5b6000613e2584828501613dec565b91505092915050565b7f4e487b7100000000000000000000000000000000000000000000000000000000600052603160045260246000fd5b7f4552433732313a206d696e7420746f20746865207a65726f2061646472657373600082015250565b6000613e936020836128c4565b9150613e9e82613e5d565b602082019050919050565b60006020820190508181036000830152613ec281613e86565b9050919050565b7f4552433732313a20746f6b656e20616c7265616479206d696e74656400000000600082015250565b6000613eff601c836128c4565b9150613f0a82613ec9565b602082019050919050565b60006020820190508181036000830152613f2e81613ef2565b905091905056fea2646970667358221220d29927d2894b7ff4fff9aa973fb098e9774187a7bf5d39c1766aeb04c53cae8564736f6c634300080d0033",
    "linkReferences": {},
    "deployedLinkReferences": {}
}