{
  "_format": "hh-sol-artifact-1",
  "contractName": "CryptoDevs",
  "sourceName": "contracts/CryptoDevs.sol",
  "abi": [
    {
      "inputs": [
        {
          "internalType": "string",
          "name": "_baseTokenURI",
          "type": "string"
        },
        {
          "internalType": "address",
          "name": "_whitelistContract",
          "type": "address"
        }
      ],
      "stateMutability": "nonpayable",
      "type": "constructor"
    },
    {
      "anonymous": false,
      "inputs": [
        {
          "indexed": true,
          "internalType": "address",
          "name": "owner",
          "type": "address"
        },
        {
          "indexed": true,
          "internalType": "address",
          "name": "approved",
          "type": "address"
        },
        {
          "indexed": true,
          "internalType": "uint256",
          "name": "tokenId",
          "type": "uint256"
        }
      ],
      "name": "Approval",
      "type": "event"
    },
    {
      "anonymous": false,
      "inputs": [
        {
          "indexed": true,
          "internalType": "address",
          "name": "owner",
          "type": "address"
        },
        {
          "indexed": true,
          "internalType": "address",
          "name": "operator",
          "type": "address"
        },
        {
          "indexed": false,
          "internalType": "bool",
          "name": "approved",
          "type": "bool"
        }
      ],
      "name": "ApprovalForAll",
      "type": "event"
    },
    {
      "anonymous": false,
      "inputs": [
        {
          "indexed": true,
          "internalType": "address",
          "name": "previousOwner",
          "type": "address"
        },
        {
          "indexed": true,
          "internalType": "address",
          "name": "newOwner",
          "type": "address"
        }
      ],
      "name": "OwnershipTransferred",
      "type": "event"
    },
    {
      "anonymous": false,
      "inputs": [
        {
          "indexed": true,
          "internalType": "address",
          "name": "from",
          "type": "address"
        },
        {
          "indexed": true,
          "internalType": "address",
          "name": "to",
          "type": "address"
        },
        {
          "indexed": true,
          "internalType": "uint256",
          "name": "tokenId",
          "type": "uint256"
        }
      ],
      "name": "Transfer",
      "type": "event"
    },
    {
      "stateMutability": "payable",
      "type": "fallback"
    },
    {
      "inputs": [
        {
          "internalType": "address",
          "name": "to",
          "type": "address"
        },
        {
          "internalType": "uint256",
          "name": "tokenId",
          "type": "uint256"
        }
      ],
      "name": "approve",
      "outputs": [],
      "stateMutability": "nonpayable",
      "type": "function"
    },
    {
      "inputs": [
        {
          "internalType": "address",
          "name": "owner",
          "type": "address"
        }
      ],
      "name": "balanceOf",
      "outputs": [
        {
          "internalType": "uint256",
          "name": "",
          "type": "uint256"
        }
      ],
      "stateMutability": "view",
      "type": "function"
    },
    {
      "inputs": [
        {
          "internalType": "uint256",
          "name": "tokenId",
          "type": "uint256"
        }
      ],
      "name": "getApproved",
      "outputs": [
        {
          "internalType": "address",
          "name": "",
          "type": "address"
        }
      ],
      "stateMutability": "view",
      "type": "function"
    },
    {
      "inputs": [],
      "name": "getTotalTokenIdsMinted",
      "outputs": [
        {
          "internalType": "uint256",
          "name": "",
          "type": "uint256"
        }
      ],
      "stateMutability": "view",
      "type": "function"
    },
    {
      "inputs": [
        {
          "internalType": "address",
          "name": "owner",
          "type": "address"
        },
        {
          "internalType": "address",
          "name": "operator",
          "type": "address"
        }
      ],
      "name": "isApprovedForAll",
      "outputs": [
        {
          "internalType": "bool",
          "name": "",
          "type": "bool"
        }
      ],
      "stateMutability": "view",
      "type": "function"
    },
    {
      "inputs": [],
      "name": "isPresaleRunning",
      "outputs": [
        {
          "internalType": "bool",
          "name": "",
          "type": "bool"
        }
      ],
      "stateMutability": "view",
      "type": "function"
    },
    {
      "inputs": [],
      "name": "name",
      "outputs": [
        {
          "internalType": "string",
          "name": "",
          "type": "string"
        }
      ],
      "stateMutability": "view",
      "type": "function"
    },
    {
      "inputs": [],
      "name": "owner",
      "outputs": [
        {
          "internalType": "address",
          "name": "",
          "type": "address"
        }
      ],
      "stateMutability": "view",
      "type": "function"
    },
    {
      "inputs": [
        {
          "internalType": "uint256",
          "name": "tokenId",
          "type": "uint256"
        }
      ],
      "name": "ownerOf",
      "outputs": [
        {
          "internalType": "address",
          "name": "",
          "type": "address"
        }
      ],
      "stateMutability": "view",
      "type": "function"
    },
    {
      "inputs": [],
      "name": "postsaleMint",
      "outputs": [],
      "stateMutability": "payable",
      "type": "function"
    },
    {
      "inputs": [],
      "name": "presaleMint",
      "outputs": [],
      "stateMutability": "payable",
      "type": "function"
    },
    {
      "inputs": [],
      "name": "renounceOwnership",
      "outputs": [],
      "stateMutability": "nonpayable",
      "type": "function"
    },
    {
      "inputs": [
        {
          "internalType": "address",
          "name": "from",
          "type": "address"
        },
        {
          "internalType": "address",
          "name": "to",
          "type": "address"
        },
        {
          "internalType": "uint256",
          "name": "tokenId",
          "type": "uint256"
        }
      ],
      "name": "safeTransferFrom",
      "outputs": [],
      "stateMutability": "nonpayable",
      "type": "function"
    },
    {
      "inputs": [
        {
          "internalType": "address",
          "name": "from",
          "type": "address"
        },
        {
          "internalType": "address",
          "name": "to",
          "type": "address"
        },
        {
          "internalType": "uint256",
          "name": "tokenId",
          "type": "uint256"
        },
        {
          "internalType": "bytes",
          "name": "_data",
          "type": "bytes"
        }
      ],
      "name": "safeTransferFrom",
      "outputs": [],
      "stateMutability": "nonpayable",
      "type": "function"
    },
    {
      "inputs": [
        {
          "internalType": "address",
          "name": "operator",
          "type": "address"
        },
        {
          "internalType": "bool",
          "name": "approved",
          "type": "bool"
        }
      ],
      "name": "setApprovalForAll",
      "outputs": [],
      "stateMutability": "nonpayable",
      "type": "function"
    },
    {
      "inputs": [
        {
          "internalType": "bool",
          "name": "isPaused",
          "type": "bool"
        }
      ],
      "name": "setPaused",
      "outputs": [],
      "stateMutability": "nonpayable",
      "type": "function"
    },
    {
      "inputs": [],
      "name": "startPresale",
      "outputs": [],
      "stateMutability": "nonpayable",
      "type": "function"
    },
    {
      "inputs": [
        {
          "internalType": "bytes4",
          "name": "interfaceId",
          "type": "bytes4"
        }
      ],
      "name": "supportsInterface",
      "outputs": [
        {
          "internalType": "bool",
          "name": "",
          "type": "bool"
        }
      ],
      "stateMutability": "view",
      "type": "function"
    },
    {
      "inputs": [],
      "name": "symbol",
      "outputs": [
        {
          "internalType": "string",
          "name": "",
          "type": "string"
        }
      ],
      "stateMutability": "view",
      "type": "function"
    },
    {
      "inputs": [
        {
          "internalType": "uint256",
          "name": "index",
          "type": "uint256"
        }
      ],
      "name": "tokenByIndex",
      "outputs": [
        {
          "internalType": "uint256",
          "name": "",
          "type": "uint256"
        }
      ],
      "stateMutability": "view",
      "type": "function"
    },
    {
      "inputs": [
        {
          "internalType": "address",
          "name": "owner",
          "type": "address"
        },
        {
          "internalType": "uint256",
          "name": "index",
          "type": "uint256"
        }
      ],
      "name": "tokenOfOwnerByIndex",
      "outputs": [
        {
          "internalType": "uint256",
          "name": "",
          "type": "uint256"
        }
      ],
      "stateMutability": "view",
      "type": "function"
    },
    {
      "inputs": [
        {
          "internalType": "uint256",
          "name": "tokenId",
          "type": "uint256"
        }
      ],
      "name": "tokenURI",
      "outputs": [
        {
          "internalType": "string",
          "name": "",
          "type": "string"
        }
      ],
      "stateMutability": "view",
      "type": "function"
    },
    {
      "inputs": [],
      "name": "totalSupply",
      "outputs": [
        {
          "internalType": "uint256",
          "name": "",
          "type": "uint256"
        }
      ],
      "stateMutability": "view",
      "type": "function"
    },
    {
      "inputs": [
        {
          "internalType": "address",
          "name": "from",
          "type": "address"
        },
        {
          "internalType": "address",
          "name": "to",
          "type": "address"
        },
        {
          "internalType": "uint256",
          "name": "tokenId",
          "type": "uint256"
        }
      ],
      "name": "transferFrom",
      "outputs": [],
      "stateMutability": "nonpayable",
      "type": "function"
    },
    {
      "inputs": [
        {
          "internalType": "address",
          "name": "newOwner",
          "type": "address"
        }
      ],
      "name": "transferOwnership",
      "outputs": [],
      "stateMutability": "nonpayable",
      "type": "function"
    },
    {
      "inputs": [],
      "name": "whitelistContract",
      "outputs": [
        {
          "internalType": "contract IWhitelist",
          "name": "",
          "type": "address"
        }
      ],
      "stateMutability": "view",
      "type": "function"
    },
    {
      "inputs": [],
      "name": "withdraw",
      "outputs": [],
      "stateMutability": "nonpayable",
      "type": "function"
    },
    {
      "stateMutability": "payable",
      "type": "receive"
    }
  ],
  "bytecode": "0x608060405260405180602001604052806000815250600c90805190602001906200002b9291906200029a565b50662386f26fc10000600d556000600e60006101000a81548160ff0219169083151502179055506014600f5560006010556000601160006101000a81548160ff0219169083151502179055503480156200008457600080fd5b506040516200465e3803806200465e8339818101604052810190620000aa91906200054c565b6040518060400160405280600b81526020017f43727970746f20446576730000000000000000000000000000000000000000008152506040518060400160405280600281526020017f434400000000000000000000000000000000000000000000000000000000000081525081600090805190602001906200012e9291906200029a565b508060019080519060200190620001479291906200029a565b5050506200016a6200015e620001cc60201b60201c565b620001d460201b60201c565b81600c9080519060200190620001829291906200029a565b5080600b60006101000a81548173ffffffffffffffffffffffffffffffffffffffff021916908373ffffffffffffffffffffffffffffffffffffffff160217905550505062000616565b600033905090565b6000600a60009054906101000a900473ffffffffffffffffffffffffffffffffffffffff16905081600a60006101000a81548173ffffffffffffffffffffffffffffffffffffffff021916908373ffffffffffffffffffffffffffffffffffffffff1602179055508173ffffffffffffffffffffffffffffffffffffffff168173ffffffffffffffffffffffffffffffffffffffff167f8be0079c531659141344cd1fd0a4f28419497f9722a3daafe3b4186f6b6457e060405160405180910390a35050565b828054620002a890620005e1565b90600052602060002090601f016020900481019282620002cc576000855562000318565b82601f10620002e757805160ff191683800117855562000318565b8280016001018555821562000318579182015b8281111562000317578251825591602001919060010190620002fa565b5b5090506200032791906200032b565b5090565b5b80821115620003465760008160009055506001016200032c565b5090565b6000604051905090565b600080fd5b600080fd5b600080fd5b600080fd5b6000601f19601f8301169050919050565b7f4e487b7100000000000000000000000000000000000000000000000000000000600052604160045260246000fd5b620003b38262000368565b810181811067ffffffffffffffff82111715620003d557620003d462000379565b5b80604052505050565b6000620003ea6200034a565b9050620003f88282620003a8565b919050565b600067ffffffffffffffff8211156200041b576200041a62000379565b5b620004268262000368565b9050602081019050919050565b60005b838110156200045357808201518184015260208101905062000436565b8381111562000463576000848401525b50505050565b6000620004806200047a84620003fd565b620003de565b9050828152602081018484840111156200049f576200049e62000363565b5b620004ac84828562000433565b509392505050565b600082601f830112620004cc57620004cb6200035e565b5b8151620004de84826020860162000469565b91505092915050565b600073ffffffffffffffffffffffffffffffffffffffff82169050919050565b60006200051482620004e7565b9050919050565b620005268162000507565b81146200053257600080fd5b50565b60008151905062000546816200051b565b92915050565b6000806040838503121562000566576200056562000354565b5b600083015167ffffffffffffffff81111562000587576200058662000359565b5b6200059585828601620004b4565b9250506020620005a88582860162000535565b9150509250929050565b7f4e487b7100000000000000000000000000000000000000000000000000000000600052602260045260246000fd5b60006002820490506001821680620005fa57607f821691505b60208210810362000610576200060f620005b2565b5b50919050565b61403880620006266000396000f3fe6080604052600436106101a05760003560e01c80634f6ccce7116100ec57806395d89b411161008a578063c87b56dd11610064578063c87b56dd14610568578063e69a0c88146105a5578063e985e9c5146105d0578063f2fde38b1461060d576101a7565b806395d89b41146104eb578063a22cb46514610516578063b88d4fde1461053f576101a7565b806370a08231116100c657806370a0823114610441578063715018a61461047e57806384900b04146104955780638da5cb5b146104c0576101a7565b80634f6ccce7146103bd57806359533d6c146103fa5780636352211e14610404576101a7565b806318160ddd116101595780632bc4927b116101335780632bc4927b146103365780632f745c59146103405780633ccfd60b1461037d57806342842e0e14610394576101a7565b806318160ddd146102b75780631ed9a7a8146102e257806323b872dd1461030d576101a7565b806301ffc9a7146101a957806304c98b2b146101e657806306fdde03146101fd578063081812fc14610228578063095ea7b31461026557806316c38b3c1461028e576101a7565b366101a757005b005b3480156101b557600080fd5b506101d060048036038101906101cb9190612923565b610636565b6040516101dd919061296b565b60405180910390f35b3480156101f257600080fd5b506101fb6106b0565b005b34801561020957600080fd5b5061021261075d565b60405161021f9190612a1f565b60405180910390f35b34801561023457600080fd5b5061024f600480360381019061024a9190612a77565b6107ef565b60405161025c9190612ae5565b60405180910390f35b34801561027157600080fd5b5061028c60048036038101906102879190612b2c565b610874565b005b34801561029a57600080fd5b506102b560048036038101906102b09190612b98565b61098b565b005b3480156102c357600080fd5b506102cc610a24565b6040516102d99190612bd4565b60405180910390f35b3480156102ee57600080fd5b506102f7610a31565b604051610304919061296b565b60405180910390f35b34801561031957600080fd5b50610334600480360381019061032f9190612bef565b610a92565b005b61033e610af2565b005b34801561034c57600080fd5b5061036760048036038101906103629190612b2c565b610c3d565b6040516103749190612bd4565b60405180910390f35b34801561038957600080fd5b50610392610ce2565b005b3480156103a057600080fd5b506103bb60048036038101906103b69190612bef565b610e20565b005b3480156103c957600080fd5b506103e460048036038101906103df9190612a77565b610e40565b6040516103f19190612bd4565b60405180910390f35b610402610eb1565b005b34801561041057600080fd5b5061042b60048036038101906104269190612a77565b6110d6565b6040516104389190612ae5565b60405180910390f35b34801561044d57600080fd5b5061046860048036038101906104639190612c42565b611187565b6040516104759190612bd4565b60405180910390f35b34801561048a57600080fd5b5061049361123e565b005b3480156104a157600080fd5b506104aa6112c6565b6040516104b79190612cce565b60405180910390f35b3480156104cc57600080fd5b506104d56112ec565b6040516104e29190612ae5565b60405180910390f35b3480156104f757600080fd5b50610500611316565b60405161050d9190612a1f565b60405180910390f35b34801561052257600080fd5b5061053d60048036038101906105389190612ce9565b6113a8565b005b34801561054b57600080fd5b5061056660048036038101906105619190612e5e565b6113be565b005b34801561057457600080fd5b5061058f600480360381019061058a9190612a77565b611420565b60405161059c9190612a1f565b60405180910390f35b3480156105b157600080fd5b506105ba6114c7565b6040516105c79190612bd4565b60405180910390f35b3480156105dc57600080fd5b506105f760048036038101906105f29190612ee1565b6114d1565b604051610604919061296b565b60405180910390f35b34801561061957600080fd5b50610634600480360381019061062f9190612c42565b611565565b005b60007f780e9d63000000000000000000000000000000000000000000000000000000007bffffffffffffffffffffffffffffffffffffffffffffffffffffffff1916827bffffffffffffffffffffffffffffffffffffffffffffffffffffffff191614806106a957506106a88261165c565b5b9050919050565b6106b861173e565b73ffffffffffffffffffffffffffffffffffffffff166106d66112ec565b73ffffffffffffffffffffffffffffffffffffffff161461072c576040517f08c379a000000000000000000000000000000000000000000000000000000000815260040161072390612f6d565b60405180910390fd5b6001601160006101000a81548160ff02191690831515021790555061012c426107559190612fbc565b601281905550565b60606000805461076c90613041565b80601f016020809104026020016040519081016040528092919081815260200182805461079890613041565b80156107e55780601f106107ba576101008083540402835291602001916107e5565b820191906000526020600020905b8154815290600101906020018083116107c857829003601f168201915b5050505050905090565b60006107fa82611746565b610839576040517f08c379a0000000000000000000000000000000000000000000000000000000008152600401610830906130e4565b60405180910390fd5b6004600083815260200190815260200160002060009054906101000a900473ffffffffffffffffffffffffffffffffffffffff169050919050565b600061087f826110d6565b90508073ffffffffffffffffffffffffffffffffffffffff168373ffffffffffffffffffffffffffffffffffffffff16036108ef576040517f08c379a00000000000000000000000000000000000000000000000000000000081526004016108e690613176565b60405180910390fd5b8073ffffffffffffffffffffffffffffffffffffffff1661090e61173e565b73ffffffffffffffffffffffffffffffffffffffff16148061093d575061093c8161093761173e565b6114d1565b5b61097c576040517f08c379a000000000000000000000000000000000000000000000000000000000815260040161097390613208565b60405180910390fd5b61098683836117b2565b505050565b61099361173e565b73ffffffffffffffffffffffffffffffffffffffff166109b16112ec565b73ffffffffffffffffffffffffffffffffffffffff1614610a07576040517f08c379a00000000000000000000000000000000000000000000000000000000081526004016109fe90612f6d565b60405180910390fd5b80600e60006101000a81548160ff02191690831515021790555050565b6000600880549050905090565b6000601160009054906101000a900460ff168015610a50575060125442105b15610a5e5760019050610a8f565b601160009054906101000a900460ff168015610a7c57506012544210155b15610a8a5760009050610a8f565b600090505b90565b610aa3610a9d61173e565b8261186b565b610ae2576040517f08c379a0000000000000000000000000000000000000000000000000000000008152600401610ad99061329a565b60405180910390fd5b610aed838383611949565b505050565b600e60009054906101000a900460ff1615610b42576040517f08c379a0000000000000000000000000000000000000000000000000000000008152600401610b3990613306565b60405180910390fd5b610b4a610a31565b15610b8a576040517f08c379a0000000000000000000000000000000000000000000000000000000008152600401610b8190613372565b60405180910390fd5b600f5460105410610bd0576040517f08c379a0000000000000000000000000000000000000000000000000000000008152600401610bc790613404565b60405180910390fd5b600d54341015610c15576040517f08c379a0000000000000000000000000000000000000000000000000000000008152600401610c0c90613470565b60405180910390fd5b600160106000828254610c289190612fbc565b92505081905550610c3b33601054611baf565b565b6000610c4883611187565b8210610c89576040517f08c379a0000000000000000000000000000000000000000000000000000000008152600401610c8090613502565b60405180910390fd5b600660008473ffffffffffffffffffffffffffffffffffffffff1673ffffffffffffffffffffffffffffffffffffffff168152602001908152602001600020600083815260200190815260200160002054905092915050565b610cea61173e565b73ffffffffffffffffffffffffffffffffffffffff16610d086112ec565b73ffffffffffffffffffffffffffffffffffffffff1614610d5e576040517f08c379a0000000000000000000000000000000000000000000000000000000008152600401610d5590612f6d565b60405180910390fd5b6000610d686112ec565b9050600047905060008273ffffffffffffffffffffffffffffffffffffffff1682604051610d9590613553565b60006040518083038185875af1925050503d8060008114610dd2576040519150601f19603f3d011682016040523d82523d6000602084013e610dd7565b606091505b5050905080610e1b576040517f08c379a0000000000000000000000000000000000000000000000000000000008152600401610e12906135b4565b60405180910390fd5b505050565b610e3b838383604051806020016040528060008152506113be565b505050565b6000610e4a610a24565b8210610e8b576040517f08c379a0000000000000000000000000000000000000000000000000000000008152600401610e8290613646565b60405180910390fd5b60088281548110610e9f57610e9e613666565b5b90600052602060002001549050919050565b600e60009054906101000a900460ff1615610f01576040517f08c379a0000000000000000000000000000000000000000000000000000000008152600401610ef890613306565b60405180910390fd5b610f09610a31565b610f48576040517f08c379a0000000000000000000000000000000000000000000000000000000008152600401610f3f906136e1565b60405180910390fd5b600b60009054906101000a900473ffffffffffffffffffffffffffffffffffffffff1673ffffffffffffffffffffffffffffffffffffffff166306c933d8336040518263ffffffff1660e01b8152600401610fa39190612ae5565b602060405180830381865afa158015610fc0573d6000803e3d6000fd5b505050506040513d601f19601f82011682018060405250810190610fe49190613716565b611023576040517f08c379a000000000000000000000000000000000000000000000000000000000815260040161101a9061378f565b60405180910390fd5b600f5460105410611069576040517f08c379a000000000000000000000000000000000000000000000000000000000815260040161106090613404565b60405180910390fd5b600d543410156110ae576040517f08c379a00000000000000000000000000000000000000000000000000000000081526004016110a590613470565b60405180910390fd5b6001601060008282546110c19190612fbc565b925050819055506110d433601054611baf565b565b6000806002600084815260200190815260200160002060009054906101000a900473ffffffffffffffffffffffffffffffffffffffff169050600073ffffffffffffffffffffffffffffffffffffffff168173ffffffffffffffffffffffffffffffffffffffff160361117e576040517f08c379a000000000000000000000000000000000000000000000000000000000815260040161117590613821565b60405180910390fd5b80915050919050565b60008073ffffffffffffffffffffffffffffffffffffffff168273ffffffffffffffffffffffffffffffffffffffff16036111f7576040517f08c379a00000000000000000000000000000000000000000000000000000000081526004016111ee906138b3565b60405180910390fd5b600360008373ffffffffffffffffffffffffffffffffffffffff1673ffffffffffffffffffffffffffffffffffffffff168152602001908152602001600020549050919050565b61124661173e565b73ffffffffffffffffffffffffffffffffffffffff166112646112ec565b73ffffffffffffffffffffffffffffffffffffffff16146112ba576040517f08c379a00000000000000000000000000000000000000000000000000000000081526004016112b190612f6d565b60405180910390fd5b6112c46000611bcd565b565b600b60009054906101000a900473ffffffffffffffffffffffffffffffffffffffff1681565b6000600a60009054906101000a900473ffffffffffffffffffffffffffffffffffffffff16905090565b60606001805461132590613041565b80601f016020809104026020016040519081016040528092919081815260200182805461135190613041565b801561139e5780601f106113735761010080835404028352916020019161139e565b820191906000526020600020905b81548152906001019060200180831161138157829003601f168201915b5050505050905090565b6113ba6113b361173e565b8383611c93565b5050565b6113cf6113c961173e565b8361186b565b61140e576040517f08c379a00000000000000000000000000000000000000000000000000000000081526004016114059061329a565b60405180910390fd5b61141a84848484611dff565b50505050565b606061142b82611746565b61146a576040517f08c379a000000000000000000000000000000000000000000000000000000000815260040161146190613945565b60405180910390fd5b6000611474611e5b565b9050600081511161149457604051806020016040528060008152506114bf565b8061149e84611eed565b6040516020016114af9291906139a1565b6040516020818303038152906040525b915050919050565b6000601054905090565b6000600560008473ffffffffffffffffffffffffffffffffffffffff1673ffffffffffffffffffffffffffffffffffffffff16815260200190815260200160002060008373ffffffffffffffffffffffffffffffffffffffff1673ffffffffffffffffffffffffffffffffffffffff16815260200190815260200160002060009054906101000a900460ff16905092915050565b61156d61173e565b73ffffffffffffffffffffffffffffffffffffffff1661158b6112ec565b73ffffffffffffffffffffffffffffffffffffffff16146115e1576040517f08c379a00000000000000000000000000000000000000000000000000000000081526004016115d890612f6d565b60405180910390fd5b600073ffffffffffffffffffffffffffffffffffffffff168173ffffffffffffffffffffffffffffffffffffffff1603611650576040517f08c379a000000000000000000000000000000000000000000000000000000000815260040161164790613a37565b60405180910390fd5b61165981611bcd565b50565b60007f80ac58cd000000000000000000000000000000000000000000000000000000007bffffffffffffffffffffffffffffffffffffffffffffffffffffffff1916827bffffffffffffffffffffffffffffffffffffffffffffffffffffffff1916148061172757507f5b5e139f000000000000000000000000000000000000000000000000000000007bffffffffffffffffffffffffffffffffffffffffffffffffffffffff1916827bffffffffffffffffffffffffffffffffffffffffffffffffffffffff1916145b8061173757506117368261204d565b5b9050919050565b600033905090565b60008073ffffffffffffffffffffffffffffffffffffffff166002600084815260200190815260200160002060009054906101000a900473ffffffffffffffffffffffffffffffffffffffff1673ffffffffffffffffffffffffffffffffffffffff1614159050919050565b816004600083815260200190815260200160002060006101000a81548173ffffffffffffffffffffffffffffffffffffffff021916908373ffffffffffffffffffffffffffffffffffffffff160217905550808273ffffffffffffffffffffffffffffffffffffffff16611825836110d6565b73ffffffffffffffffffffffffffffffffffffffff167f8c5be1e5ebec7d5bd14f71427d1e84f3dd0314c0f7b2291e5b200ac8c7c3b92560405160405180910390a45050565b600061187682611746565b6118b5576040517f08c379a00000000000000000000000000000000000000000000000000000000081526004016118ac90613ac9565b60405180910390fd5b60006118c0836110d6565b90508073ffffffffffffffffffffffffffffffffffffffff168473ffffffffffffffffffffffffffffffffffffffff16148061192f57508373ffffffffffffffffffffffffffffffffffffffff16611917846107ef565b73ffffffffffffffffffffffffffffffffffffffff16145b80611940575061193f81856114d1565b5b91505092915050565b8273ffffffffffffffffffffffffffffffffffffffff16611969826110d6565b73ffffffffffffffffffffffffffffffffffffffff16146119bf576040517f08c379a00000000000000000000000000000000000000000000000000000000081526004016119b690613b5b565b60405180910390fd5b600073ffffffffffffffffffffffffffffffffffffffff168273ffffffffffffffffffffffffffffffffffffffff1603611a2e576040517f08c379a0000000000000000000000000000000000000000000000000000000008152600401611a2590613bed565b60405180910390fd5b611a398383836120b7565b611a446000826117b2565b6001600360008573ffffffffffffffffffffffffffffffffffffffff1673ffffffffffffffffffffffffffffffffffffffff1681526020019081526020016000206000828254611a949190613c0d565b925050819055506001600360008473ffffffffffffffffffffffffffffffffffffffff1673ffffffffffffffffffffffffffffffffffffffff1681526020019081526020016000206000828254611aeb9190612fbc565b92505081905550816002600083815260200190815260200160002060006101000a81548173ffffffffffffffffffffffffffffffffffffffff021916908373ffffffffffffffffffffffffffffffffffffffff160217905550808273ffffffffffffffffffffffffffffffffffffffff168473ffffffffffffffffffffffffffffffffffffffff167fddf252ad1be2c89b69c2b068fc378daa952ba7f163c4a11628f55a4df523b3ef60405160405180910390a4611baa8383836121c9565b505050565b611bc98282604051806020016040528060008152506121ce565b5050565b6000600a60009054906101000a900473ffffffffffffffffffffffffffffffffffffffff16905081600a60006101000a81548173ffffffffffffffffffffffffffffffffffffffff021916908373ffffffffffffffffffffffffffffffffffffffff1602179055508173ffffffffffffffffffffffffffffffffffffffff168173ffffffffffffffffffffffffffffffffffffffff167f8be0079c531659141344cd1fd0a4f28419497f9722a3daafe3b4186f6b6457e060405160405180910390a35050565b8173ffffffffffffffffffffffffffffffffffffffff168373ffffffffffffffffffffffffffffffffffffffff1603611d01576040517f08c379a0000000000000000000000000000000000000000000000000000000008152600401611cf890613c8d565b60405180910390fd5b80600560008573ffffffffffffffffffffffffffffffffffffffff1673ffffffffffffffffffffffffffffffffffffffff16815260200190815260200160002060008473ffffffffffffffffffffffffffffffffffffffff1673ffffffffffffffffffffffffffffffffffffffff16815260200190815260200160002060006101000a81548160ff0219169083151502179055508173ffffffffffffffffffffffffffffffffffffffff168373ffffffffffffffffffffffffffffffffffffffff167f17307eab39ab6107e8899845ad3d59bd9653f200f220920489ca2b5937696c3183604051611df2919061296b565b60405180910390a3505050565b611e0a848484611949565b611e1684848484612229565b611e55576040517f08c379a0000000000000000000000000000000000000000000000000000000008152600401611e4c90613d1f565b60405180910390fd5b50505050565b6060600c8054611e6a90613041565b80601f0160208091040260200160405190810160405280929190818152602001828054611e9690613041565b8015611ee35780601f10611eb857610100808354040283529160200191611ee3565b820191906000526020600020905b815481529060010190602001808311611ec657829003601f168201915b5050505050905090565b606060008203611f34576040518060400160405280600181526020017f30000000000000000000000000000000000000000000000000000000000000008152509050612048565b600082905060005b60008214611f66578080611f4f90613d3f565b915050600a82611f5f9190613db6565b9150611f3c565b60008167ffffffffffffffff811115611f8257611f81612d33565b5b6040519080825280601f01601f191660200182016040528015611fb45781602001600182028036833780820191505090505b5090505b6000851461204157600182611fcd9190613c0d565b9150600a85611fdc9190613de7565b6030611fe89190612fbc565b60f81b818381518110611ffe57611ffd613666565b5b60200101907effffffffffffffffffffffffffffffffffffffffffffffffffffffffffffff1916908160001a905350600a8561203a9190613db6565b9450611fb8565b8093505050505b919050565b60007f01ffc9a7000000000000000000000000000000000000000000000000000000007bffffffffffffffffffffffffffffffffffffffffffffffffffffffff1916827bffffffffffffffffffffffffffffffffffffffffffffffffffffffff1916149050919050565b6120c28383836123b0565b600073ffffffffffffffffffffffffffffffffffffffff168373ffffffffffffffffffffffffffffffffffffffff1603612104576120ff816123b5565b612143565b8173ffffffffffffffffffffffffffffffffffffffff168373ffffffffffffffffffffffffffffffffffffffff16146121425761214183826123fe565b5b5b600073ffffffffffffffffffffffffffffffffffffffff168273ffffffffffffffffffffffffffffffffffffffff1603612185576121808161256b565b6121c4565b8273ffffffffffffffffffffffffffffffffffffffff168273ffffffffffffffffffffffffffffffffffffffff16146121c3576121c2828261263c565b5b5b505050565b505050565b6121d883836126bb565b6121e56000848484612229565b612224576040517f08c379a000000000000000000000000000000000000000000000000000000000815260040161221b90613d1f565b60405180910390fd5b505050565b600061224a8473ffffffffffffffffffffffffffffffffffffffff16612894565b156123a3578373ffffffffffffffffffffffffffffffffffffffff1663150b7a0261227361173e565b8786866040518563ffffffff1660e01b81526004016122959493929190613e6d565b6020604051808303816000875af19250505080156122d157506040513d601f19601f820116820180604052508101906122ce9190613ece565b60015b612353573d8060008114612301576040519150601f19603f3d011682016040523d82523d6000602084013e612306565b606091505b50600081510361234b576040517f08c379a000000000000000000000000000000000000000000000000000000000815260040161234290613d1f565b60405180910390fd5b805181602001fd5b63150b7a0260e01b7bffffffffffffffffffffffffffffffffffffffffffffffffffffffff1916817bffffffffffffffffffffffffffffffffffffffffffffffffffffffff1916149150506123a8565b600190505b949350505050565b505050565b6008805490506009600083815260200190815260200160002081905550600881908060018154018082558091505060019003906000526020600020016000909190919091505550565b6000600161240b84611187565b6124159190613c0d565b90506000600760008481526020019081526020016000205490508181146124fa576000600660008673ffffffffffffffffffffffffffffffffffffffff1673ffffffffffffffffffffffffffffffffffffffff168152602001908152602001600020600084815260200190815260200160002054905080600660008773ffffffffffffffffffffffffffffffffffffffff1673ffffffffffffffffffffffffffffffffffffffff168152602001908152602001600020600084815260200190815260200160002081905550816007600083815260200190815260200160002081905550505b6007600084815260200190815260200160002060009055600660008573ffffffffffffffffffffffffffffffffffffffff1673ffffffffffffffffffffffffffffffffffffffff16815260200190815260200160002060008381526020019081526020016000206000905550505050565b6000600160088054905061257f9190613c0d565b90506000600960008481526020019081526020016000205490506000600883815481106125af576125ae613666565b5b9060005260206000200154905080600883815481106125d1576125d0613666565b5b9060005260206000200181905550816009600083815260200190815260200160002081905550600960008581526020019081526020016000206000905560088054806126205761261f613efb565b5b6001900381819060005260206000200160009055905550505050565b600061264783611187565b905081600660008573ffffffffffffffffffffffffffffffffffffffff1673ffffffffffffffffffffffffffffffffffffffff168152602001908152602001600020600083815260200190815260200160002081905550806007600084815260200190815260200160002081905550505050565b600073ffffffffffffffffffffffffffffffffffffffff168273ffffffffffffffffffffffffffffffffffffffff160361272a576040517f08c379a000000000000000000000000000000000000000000000000000000000815260040161272190613f76565b60405180910390fd5b61273381611746565b15612773576040517f08c379a000000000000000000000000000000000000000000000000000000000815260040161276a90613fe2565b60405180910390fd5b61277f600083836120b7565b6001600360008473ffffffffffffffffffffffffffffffffffffffff1673ffffffffffffffffffffffffffffffffffffffff16815260200190815260200160002060008282546127cf9190612fbc565b92505081905550816002600083815260200190815260200160002060006101000a81548173ffffffffffffffffffffffffffffffffffffffff021916908373ffffffffffffffffffffffffffffffffffffffff160217905550808273ffffffffffffffffffffffffffffffffffffffff16600073ffffffffffffffffffffffffffffffffffffffff167fddf252ad1be2c89b69c2b068fc378daa952ba7f163c4a11628f55a4df523b3ef60405160405180910390a4612890600083836121c9565b5050565b6000808273ffffffffffffffffffffffffffffffffffffffff163b119050919050565b6000604051905090565b600080fd5b600080fd5b60007fffffffff0000000000000000000000000000000000000000000000000000000082169050919050565b612900816128cb565b811461290b57600080fd5b50565b60008135905061291d816128f7565b92915050565b600060208284031215612939576129386128c1565b5b60006129478482850161290e565b91505092915050565b60008115159050919050565b61296581612950565b82525050565b6000602082019050612980600083018461295c565b92915050565b600081519050919050565b600082825260208201905092915050565b60005b838110156129c05780820151818401526020810190506129a5565b838111156129cf576000848401525b50505050565b6000601f19601f8301169050919050565b60006129f182612986565b6129fb8185612991565b9350612a0b8185602086016129a2565b612a14816129d5565b840191505092915050565b60006020820190508181036000830152612a3981846129e6565b905092915050565b6000819050919050565b612a5481612a41565b8114612a5f57600080fd5b50565b600081359050612a7181612a4b565b92915050565b600060208284031215612a8d57612a8c6128c1565b5b6000612a9b84828501612a62565b91505092915050565b600073ffffffffffffffffffffffffffffffffffffffff82169050919050565b6000612acf82612aa4565b9050919050565b612adf81612ac4565b82525050565b6000602082019050612afa6000830184612ad6565b92915050565b612b0981612ac4565b8114612b1457600080fd5b50565b600081359050612b2681612b00565b92915050565b60008060408385031215612b4357612b426128c1565b5b6000612b5185828601612b17565b9250506020612b6285828601612a62565b9150509250929050565b612b7581612950565b8114612b8057600080fd5b50565b600081359050612b9281612b6c565b92915050565b600060208284031215612bae57612bad6128c1565b5b6000612bbc84828501612b83565b91505092915050565b612bce81612a41565b82525050565b6000602082019050612be96000830184612bc5565b92915050565b600080600060608486031215612c0857612c076128c1565b5b6000612c1686828701612b17565b9350506020612c2786828701612b17565b9250506040612c3886828701612a62565b9150509250925092565b600060208284031215612c5857612c576128c1565b5b6000612c6684828501612b17565b91505092915050565b6000819050919050565b6000612c94612c8f612c8a84612aa4565b612c6f565b612aa4565b9050919050565b6000612ca682612c79565b9050919050565b6000612cb882612c9b565b9050919050565b612cc881612cad565b82525050565b6000602082019050612ce36000830184612cbf565b92915050565b60008060408385031215612d0057612cff6128c1565b5b6000612d0e85828601612b17565b9250506020612d1f85828601612b83565b9150509250929050565b600080fd5b600080fd5b7f4e487b7100000000000000000000000000000000000000000000000000000000600052604160045260246000fd5b612d6b826129d5565b810181811067ffffffffffffffff82111715612d8a57612d89612d33565b5b80604052505050565b6000612d9d6128b7565b9050612da98282612d62565b919050565b600067ffffffffffffffff821115612dc957612dc8612d33565b5b612dd2826129d5565b9050602081019050919050565b82818337600083830152505050565b6000612e01612dfc84612dae565b612d93565b905082815260208101848484011115612e1d57612e1c612d2e565b5b612e28848285612ddf565b509392505050565b600082601f830112612e4557612e44612d29565b5b8135612e55848260208601612dee565b91505092915050565b60008060008060808587031215612e7857612e776128c1565b5b6000612e8687828801612b17565b9450506020612e9787828801612b17565b9350506040612ea887828801612a62565b925050606085013567ffffffffffffffff811115612ec957612ec86128c6565b5b612ed587828801612e30565b91505092959194509250565b60008060408385031215612ef857612ef76128c1565b5b6000612f0685828601612b17565b9250506020612f1785828601612b17565b9150509250929050565b7f4f776e61626c653a2063616c6c6572206973206e6f7420746865206f776e6572600082015250565b6000612f57602083612991565b9150612f6282612f21565b602082019050919050565b60006020820190508181036000830152612f8681612f4a565b9050919050565b7f4e487b7100000000000000000000000000000000000000000000000000000000600052601160045260246000fd5b6000612fc782612a41565b9150612fd283612a41565b9250827fffffffffffffffffffffffffffffffffffffffffffffffffffffffffffffffff0382111561300757613006612f8d565b5b828201905092915050565b7f4e487b7100000000000000000000000000000000000000000000000000000000600052602260045260246000fd5b6000600282049050600182168061305957607f821691505b60208210810361306c5761306b613012565b5b50919050565b7f4552433732313a20617070726f76656420717565727920666f72206e6f6e657860008201527f697374656e7420746f6b656e0000000000000000000000000000000000000000602082015250565b60006130ce602c83612991565b91506130d982613072565b604082019050919050565b600060208201905081810360008301526130fd816130c1565b9050919050565b7f4552433732313a20617070726f76616c20746f2063757272656e74206f776e6560008201527f7200000000000000000000000000000000000000000000000000000000000000602082015250565b6000613160602183612991565b915061316b82613104565b604082019050919050565b6000602082019050818103600083015261318f81613153565b9050919050565b7f4552433732313a20617070726f76652063616c6c6572206973206e6f74206f7760008201527f6e6572206e6f7220617070726f76656420666f7220616c6c0000000000000000602082015250565b60006131f2603883612991565b91506131fd82613196565b604082019050919050565b60006020820190508181036000830152613221816131e5565b9050919050565b7f4552433732313a207472616e736665722063616c6c6572206973206e6f74206f60008201527f776e6572206e6f7220617070726f766564000000000000000000000000000000602082015250565b6000613284603183612991565b915061328f82613228565b604082019050919050565b600060208201905081810360008301526132b381613277565b9050919050565b7f436f6e74726163742063757272656e746c792070617573656400000000000000600082015250565b60006132f0601983612991565b91506132fb826132ba565b602082019050919050565b6000602082019050818103600083015261331f816132e3565b9050919050565b7f50726573616c6520686173206e6f7420656e6465642079657400000000000000600082015250565b600061335c601983612991565b915061336782613326565b602082019050919050565b6000602082019050818103600083015261338b8161334f565b9050919050565b7f4578636565646564206d6178696d756d2043727970746f20446576732073757060008201527f706c790000000000000000000000000000000000000000000000000000000000602082015250565b60006133ee602383612991565b91506133f982613392565b604082019050919050565b6000602082019050818103600083015261341d816133e1565b9050919050565b7f45746865722073656e74206973206e6f7420636f727265637400000000000000600082015250565b600061345a601983612991565b915061346582613424565b602082019050919050565b600060208201905081810360008301526134898161344d565b9050919050565b7f455243373231456e756d657261626c653a206f776e657220696e646578206f7560008201527f74206f6620626f756e6473000000000000000000000000000000000000000000602082015250565b60006134ec602b83612991565b91506134f782613490565b604082019050919050565b6000602082019050818103600083015261351b816134df565b9050919050565b600081905092915050565b50565b600061353d600083613522565b91506135488261352d565b600082019050919050565b600061355e82613530565b9150819050919050565b7f4661696c656420746f2073656e64204574686572000000000000000000000000600082015250565b600061359e601483612991565b91506135a982613568565b602082019050919050565b600060208201905081810360008301526135cd81613591565b9050919050565b7f455243373231456e756d657261626c653a20676c6f62616c20696e646578206f60008201527f7574206f6620626f756e64730000000000000000000000000000000000000000602082015250565b6000613630602c83612991565b915061363b826135d4565b604082019050919050565b6000602082019050818103600083015261365f81613623565b9050919050565b7f4e487b7100000000000000000000000000000000000000000000000000000000600052603260045260246000fd5b7f50726573616c65206973206e6f742072756e6e696e6700000000000000000000600082015250565b60006136cb601683612991565b91506136d682613695565b602082019050919050565b600060208201905081810360008301526136fa816136be565b9050919050565b60008151905061371081612b6c565b92915050565b60006020828403121561372c5761372b6128c1565b5b600061373a84828501613701565b91505092915050565b7f596f7520617265206e6f742077686974656c6973746564000000000000000000600082015250565b6000613779601783612991565b915061378482613743565b602082019050919050565b600060208201905081810360008301526137a88161376c565b9050919050565b7f4552433732313a206f776e657220717565727920666f72206e6f6e657869737460008201527f656e7420746f6b656e0000000000000000000000000000000000000000000000602082015250565b600061380b602983612991565b9150613816826137af565b604082019050919050565b6000602082019050818103600083015261383a816137fe565b9050919050565b7f4552433732313a2062616c616e636520717565727920666f7220746865207a6560008201527f726f206164647265737300000000000000000000000000000000000000000000602082015250565b600061389d602a83612991565b91506138a882613841565b604082019050919050565b600060208201905081810360008301526138cc81613890565b9050919050565b7f4552433732314d657461646174613a2055524920717565727920666f72206e6f60008201527f6e6578697374656e7420746f6b656e0000000000000000000000000000000000602082015250565b600061392f602f83612991565b915061393a826138d3565b604082019050919050565b6000602082019050818103600083015261395e81613922565b9050919050565b600081905092915050565b600061397b82612986565b6139858185613965565b93506139958185602086016129a2565b80840191505092915050565b60006139ad8285613970565b91506139b98284613970565b91508190509392505050565b7f4f776e61626c653a206e6577206f776e657220697320746865207a65726f206160008201527f6464726573730000000000000000000000000000000000000000000000000000602082015250565b6000613a21602683612991565b9150613a2c826139c5565b604082019050919050565b60006020820190508181036000830152613a5081613a14565b9050919050565b7f4552433732313a206f70657261746f7220717565727920666f72206e6f6e657860008201527f697374656e7420746f6b656e0000000000000000000000000000000000000000602082015250565b6000613ab3602c83612991565b9150613abe82613a57565b604082019050919050565b60006020820190508181036000830152613ae281613aa6565b9050919050565b7f4552433732313a207472616e736665722066726f6d20696e636f72726563742060008201527f6f776e6572000000000000000000000000000000000000000000000000000000602082015250565b6000613b45602583612991565b9150613b5082613ae9565b604082019050919050565b60006020820190508181036000830152613b7481613b38565b9050919050565b7f4552433732313a207472616e7366657220746f20746865207a65726f2061646460008201527f7265737300000000000000000000000000000000000000000000000000000000602082015250565b6000613bd7602483612991565b9150613be282613b7b565b604082019050919050565b60006020820190508181036000830152613c0681613bca565b9050919050565b6000613c1882612a41565b9150613c2383612a41565b925082821015613c3657613c35612f8d565b5b828203905092915050565b7f4552433732313a20617070726f766520746f2063616c6c657200000000000000600082015250565b6000613c77601983612991565b9150613c8282613c41565b602082019050919050565b60006020820190508181036000830152613ca681613c6a565b9050919050565b7f4552433732313a207472616e7366657220746f206e6f6e20455243373231526560008201527f63656976657220696d706c656d656e7465720000000000000000000000000000602082015250565b6000613d09603283612991565b9150613d1482613cad565b604082019050919050565b60006020820190508181036000830152613d3881613cfc565b9050919050565b6000613d4a82612a41565b91507fffffffffffffffffffffffffffffffffffffffffffffffffffffffffffffffff8203613d7c57613d7b612f8d565b5b600182019050919050565b7f4e487b7100000000000000000000000000000000000000000000000000000000600052601260045260246000fd5b6000613dc182612a41565b9150613dcc83612a41565b925082613ddc57613ddb613d87565b5b828204905092915050565b6000613df282612a41565b9150613dfd83612a41565b925082613e0d57613e0c613d87565b5b828206905092915050565b600081519050919050565b600082825260208201905092915050565b6000613e3f82613e18565b613e498185613e23565b9350613e598185602086016129a2565b613e62816129d5565b840191505092915050565b6000608082019050613e826000830187612ad6565b613e8f6020830186612ad6565b613e9c6040830185612bc5565b8181036060830152613eae8184613e34565b905095945050505050565b600081519050613ec8816128f7565b92915050565b600060208284031215613ee457613ee36128c1565b5b6000613ef284828501613eb9565b91505092915050565b7f4e487b7100000000000000000000000000000000000000000000000000000000600052603160045260246000fd5b7f4552433732313a206d696e7420746f20746865207a65726f2061646472657373600082015250565b6000613f60602083612991565b9150613f6b82613f2a565b602082019050919050565b60006020820190508181036000830152613f8f81613f53565b9050919050565b7f4552433732313a20746f6b656e20616c7265616479206d696e74656400000000600082015250565b6000613fcc601c83612991565b9150613fd782613f96565b602082019050919050565b60006020820190508181036000830152613ffb81613fbf565b905091905056fea26469706673582212200e952434c5f46e1306765454a667d008f6fed4abfb1cd635303843634cffb49e64736f6c634300080d0033",
  "linkReferences": {},
  "deployedLinkReferences": {}
}